{
  "contractName": "RegistryLookup",
  "abi": [
    {
      "constant": true,
      "inputs": [
        {
          "name": "",
          "type": "address"
        }
      ],
      "name": "authorisedStatus",
      "outputs": [
        {
          "name": "",
          "type": "bool"
        }
      ],
      "payable": false,
      "stateMutability": "view",
      "type": "function"
    },
    {
      "constant": true,
      "inputs": [
        {
          "name": "",
          "type": "uint256"
        }
      ],
      "name": "authorisedTokens",
      "outputs": [
        {
          "name": "",
          "type": "address"
        }
      ],
      "payable": false,
      "stateMutability": "view",
      "type": "function"
    },
    {
      "constant": true,
      "inputs": [],
      "name": "owner",
      "outputs": [
        {
          "name": "",
          "type": "address"
        }
      ],
      "payable": false,
      "stateMutability": "view",
      "type": "function"
    },
    {
      "constant": true,
      "inputs": [],
      "name": "isOwner",
      "outputs": [
        {
          "name": "",
          "type": "bool"
        }
      ],
      "payable": false,
      "stateMutability": "view",
      "type": "function"
    },
    {
      "constant": false,
      "inputs": [
        {
          "name": "newOwner",
          "type": "address"
        }
      ],
      "name": "transferOwnership",
      "outputs": [],
      "payable": false,
      "stateMutability": "nonpayable",
      "type": "function"
    },
    {
      "anonymous": false,
      "inputs": [
        {
          "indexed": false,
          "name": "newToken",
          "type": "address"
        }
      ],
      "name": "AddNewToken",
      "type": "event"
    },
    {
      "anonymous": false,
      "inputs": [
        {
          "indexed": false,
          "name": "token",
          "type": "address"
        }
      ],
      "name": "RemoveToken",
      "type": "event"
    },
    {
      "anonymous": false,
      "inputs": [
        {
          "indexed": true,
          "name": "previousOwner",
          "type": "address"
        },
        {
          "indexed": true,
          "name": "newOwner",
          "type": "address"
        }
      ],
      "name": "OwnershipTransferred",
      "type": "event"
    },
    {
      "constant": false,
      "inputs": [
        {
          "name": "_tokens",
          "type": "address[]"
        }
      ],
      "name": "addNewTokens",
      "outputs": [],
      "payable": false,
      "stateMutability": "nonpayable",
      "type": "function"
    },
    {
      "constant": false,
      "inputs": [
        {
          "name": "_tokens",
          "type": "address[]"
        }
      ],
      "name": "removeTokens",
      "outputs": [],
      "payable": false,
      "stateMutability": "nonpayable",
      "type": "function"
    },
    {
      "constant": true,
      "inputs": [],
      "name": "getAvailableTokens",
      "outputs": [
        {
          "name": "tokens",
          "type": "address[]"
        }
      ],
      "payable": false,
      "stateMutability": "view",
      "type": "function"
    },
    {
      "constant": true,
      "inputs": [
        {
          "name": "_tokens",
          "type": "address[]"
        }
      ],
      "name": "getTokenData",
      "outputs": [
        {
          "name": "names",
          "type": "string[]"
        },
        {
          "name": "symbols",
          "type": "string[]"
        },
        {
          "name": "decimals",
          "type": "uint256[]"
        }
      ],
      "payable": false,
      "stateMutability": "view",
      "type": "function"
    },
    {
      "constant": true,
      "inputs": [
        {
          "name": "trader",
          "type": "address"
        },
        {
          "name": "assetAddresses",
          "type": "address[]"
        }
      ],
      "name": "getExternalBalances",
      "outputs": [
        {
          "name": "",
          "type": "uint256[]"
        }
      ],
      "payable": false,
      "stateMutability": "view",
      "type": "function"
    }
  ],
  "bytecode": "0x6080604052336000806101000a81548173ffffffffffffffffffffffffffffffffffffffff021916908373ffffffffffffffffffffffffffffffffffffffff1602179055506000809054906101000a900473ffffffffffffffffffffffffffffffffffffffff1673ffffffffffffffffffffffffffffffffffffffff16600073ffffffffffffffffffffffffffffffffffffffff167f8be0079c531659141344cd1fd0a4f28419497f9722a3daafe3b4186f6b6457e060405160405180910390a3611a19806100cf6000396000f3fe6080604052600436106100a4576000357c0100000000000000000000000000000000000000000000000000000000900463ffffffff1680632e73288b146100a95780633ee7af55146100d25780636c3824ef1461010f5780638cce6fca146101385780638da5cb5b146101755780638f32d59b146101a0578063bf2eb19e146101cb578063c37147231461020a578063e35568cb14610247578063f2fde38b14610272575b600080fd5b3480156100b557600080fd5b506100d060048036036100cb91908101906113de565b61029b565b005b3480156100de57600080fd5b506100f960048036036100f49190810190611361565b61041f565b60405161010691906117ca565b60405180910390f35b34801561011b57600080fd5b50610136600480360361013191908101906113de565b61043f565b005b34801561014457600080fd5b5061015f600480360361015a9190810190611489565b6105f3565b60405161016c919061171f565b60405180910390f35b34801561018157600080fd5b5061018a610631565b604051610197919061171f565b60405180910390f35b3480156101ac57600080fd5b506101b561065a565b6040516101c291906117ca565b60405180910390f35b3480156101d757600080fd5b506101f260048036036101ed91908101906113de565b6106b1565b6040516102019392919061175c565b60405180910390f35b34801561021657600080fd5b50610231600480360361022c919081019061138a565b6108ed565b60405161023e91906117a8565b60405180910390f35b34801561025357600080fd5b5061025c610a22565b604051610269919061173a565b60405180910390f35b34801561027e57600080fd5b5061029960048036036102949190810190611361565b610bfe565b005b6102a361065a565b15156102ae57600080fd5b60008090505b81518163ffffffff16101561041b576001806000848463ffffffff168151811015156102dc57fe5b9060200190602002015173ffffffffffffffffffffffffffffffffffffffff1673ffffffffffffffffffffffffffffffffffffffff16815260200190815260200160002060006101000a81548160ff0219169083151502179055506002828263ffffffff1681518110151561034d57fe5b9060200190602002015190806001815401808255809150509060018203906000526020600020016000909192909190916101000a81548173ffffffffffffffffffffffffffffffffffffffff021916908373ffffffffffffffffffffffffffffffffffffffff160217905550507f42fb71c04e6650a34983ed55f09500bef00b288f2152356b1857630026235f12828263ffffffff168151811015156103ef57fe5b90602001906020020151604051610406919061171f565b60405180910390a180806001019150506102b4565b5050565b60016020528060005260406000206000915054906101000a900460ff1681565b61044761065a565b151561045257600080fd5b60008090505b81518163ffffffff1610156105ef576001151560016000848463ffffffff1681518110151561048357fe5b9060200190602002015173ffffffffffffffffffffffffffffffffffffffff1673ffffffffffffffffffffffffffffffffffffffff16815260200190815260200160002060009054906101000a900460ff161515141515610519576040517f08c379a000000000000000000000000000000000000000000000000000000000815260040161051090611805565b60405180910390fd5b600060016000848463ffffffff1681518110151561053357fe5b9060200190602002015173ffffffffffffffffffffffffffffffffffffffff1673ffffffffffffffffffffffffffffffffffffffff16815260200190815260200160002060006101000a81548160ff0219169083151502179055507f4eb129c82dcd3eedb52df2b0e6fb4cfa41ac64ee9d63ff081acbb1877e85d79b828263ffffffff168151811015156105c357fe5b906020019060200201516040516105da919061171f565b60405180910390a18080600101915050610458565b5050565b60028181548110151561060257fe5b906000526020600020016000915054906101000a900473ffffffffffffffffffffffffffffffffffffffff1681565b60008060009054906101000a900473ffffffffffffffffffffffffffffffffffffffff16905090565b60008060009054906101000a900473ffffffffffffffffffffffffffffffffffffffff1673ffffffffffffffffffffffffffffffffffffffff163373ffffffffffffffffffffffffffffffffffffffff1614905090565b606080606083516040519080825280602002602001820160405280156106eb57816020015b60608152602001906001900390816106d65790505b509250835160405190808252806020026020018201604052801561072357816020015b606081526020019060019003908161070e5790505b50915083516040519080825280602002602001820160405280156107565781602001602082028038833980820191505090505b50905060008090505b84518163ffffffff1610156108e557610794858263ffffffff1681518110151561078557fe5b90602001906020020151610c1d565b848263ffffffff168151811015156107a857fe5b906020019060200201819052506107db858263ffffffff168151811015156107cc57fe5b90602001906020020151610d80565b838263ffffffff168151811015156107ef57fe5b90602001906020020181905250848163ffffffff1681518110151561081057fe5b9060200190602002015173ffffffffffffffffffffffffffffffffffffffff1663313ce5676040518163ffffffff167c010000000000000000000000000000000000000000000000000000000002815260040160206040518083038186803b15801561087b57600080fd5b505afa15801561088f573d6000803e3d6000fd5b505050506040513d601f19601f820116820180604052506108b391908101906114db565b60ff16828263ffffffff168151811015156108ca57fe5b9060200190602002018181525050808060010191505061075f565b509193909250565b60608082516040519080825280602002602001820160405280156109205781602001602082028038833980820191505090505b50905060008090505b8351811015610a1757838181518110151561094057fe5b9060200190602002015173ffffffffffffffffffffffffffffffffffffffff166370a08231866040518263ffffffff167c010000000000000000000000000000000000000000000000000000000002815260040161099e919061171f565b60206040518083038186803b1580156109b657600080fd5b505afa1580156109ca573d6000803e3d6000fd5b505050506040513d601f19601f820116820180604052506109ee91908101906114b2565b82828151811015156109fc57fe5b90602001906020020181815250508080600101915050610929565b508091505092915050565b6060600280549050604051908082528060200260200182016040528015610a585781602001602082028038833980820191505090505b50905060008090505b6002805490508163ffffffff161015610bfa576001600060028363ffffffff16815481101515610a8d57fe5b9060005260206000200160009054906101000a900473ffffffffffffffffffffffffffffffffffffffff1673ffffffffffffffffffffffffffffffffffffffff1673ffffffffffffffffffffffffffffffffffffffff16815260200190815260200160002060009054906101000a900460ff1615610b9a5760028163ffffffff16815481101515610b1a57fe5b9060005260206000200160009054906101000a900473ffffffffffffffffffffffffffffffffffffffff16828263ffffffff16815181101515610b5957fe5b9060200190602002019073ffffffffffffffffffffffffffffffffffffffff16908173ffffffffffffffffffffffffffffffffffffffff1681525050610bed565b6000828263ffffffff16815181101515610bb057fe5b9060200190602002019073ffffffffffffffffffffffffffffffffffffffff16908173ffffffffffffffffffffffffffffffffffffffff16815250505b8080600101915050610a61565b5090565b610c0661065a565b1515610c1157600080fd5b610c1a81610ee3565b50565b606080610cc28373ffffffffffffffffffffffffffffffffffffffff166306fdde036040518163ffffffff167c010000000000000000000000000000000000000000000000000000000002815260040160206040518083038186803b158015610c8557600080fd5b505afa158015610c99573d6000803e3d6000fd5b505050506040513d601f19601f82011682018060405250610cbd919081019061141f565b611013565b9050606081905060018151111515610d76578373ffffffffffffffffffffffffffffffffffffffff166306fdde036040518163ffffffff167c010000000000000000000000000000000000000000000000000000000002815260040160006040518083038186803b158015610d3657600080fd5b505afa158015610d4a573d6000803e3d6000fd5b505050506040513d6000823e3d601f19601f82011682018060405250610d739190810190611448565b91505b8192505050919050565b606080610e258373ffffffffffffffffffffffffffffffffffffffff166395d89b416040518163ffffffff167c010000000000000000000000000000000000000000000000000000000002815260040160206040518083038186803b158015610de857600080fd5b505afa158015610dfc573d6000803e3d6000fd5b505050506040513d601f19601f82011682018060405250610e20919081019061141f565b611013565b9050606081905060018151111515610ed9578373ffffffffffffffffffffffffffffffffffffffff166395d89b416040518163ffffffff167c010000000000000000000000000000000000000000000000000000000002815260040160006040518083038186803b158015610e9957600080fd5b505afa158015610ead573d6000803e3d6000fd5b505050506040513d6000823e3d601f19601f82011682018060405250610ed69190810190611448565b91505b8192505050919050565b600073ffffffffffffffffffffffffffffffffffffffff168173ffffffffffffffffffffffffffffffffffffffff1614151515610f55576040517f08c379a0000000000000000000000000000000000000000000000000000000008152600401610f4c906117e5565b60405180910390fd5b8073ffffffffffffffffffffffffffffffffffffffff166000809054906101000a900473ffffffffffffffffffffffffffffffffffffffff1673ffffffffffffffffffffffffffffffffffffffff167f8be0079c531659141344cd1fd0a4f28419497f9722a3daafe3b4186f6b6457e060405160405180910390a3806000806101000a81548173ffffffffffffffffffffffffffffffffffffffff021916908373ffffffffffffffffffffffffffffffffffffffff16021790555050565b60608060206040519080825280601f01601f19166020018201604052801561104a5781602001600182028038833980820191505090505b509050600080905060008090505b60208110156111195760008160080260020a866001900402600102905060007f010000000000000000000000000000000000000000000000000000000000000002817effffffffffffffffffffffffffffffffffffffffffffffffffffffffffffff191614151561110b578084848151811015156110d257fe5b9060200101907effffffffffffffffffffffffffffffffffffffffffffffffffffffffffffff1916908160001a90535082806001019350505b508080600101915050611058565b506060816040519080825280601f01601f19166020018201604052801561114f5781602001600182028038833980820191505090505b50905060008090505b828163ffffffff16101561121657838163ffffffff1681518110151561117a57fe5b9060200101517f010000000000000000000000000000000000000000000000000000000000000090047f010000000000000000000000000000000000000000000000000000000000000002828263ffffffff168151811015156111d957fe5b9060200101907effffffffffffffffffffffffffffffffffffffffffffffffffffffffffffff1916908160001a9053508080600101915050611158565b50809350505050919050565b600061122e8235611968565b905092915050565b600082601f830112151561124957600080fd5b813561125c61125782611852565b611825565b9150818183526020840193506020810190508385602084028201111561128157600080fd5b60005b838110156112b157816112978882611222565b845260208401935060208301925050600181019050611284565b5050505092915050565b60006112c7825161197a565b905092915050565b600082601f83011215156112e257600080fd5b81516112f56112f08261187a565b611825565b9150808252602083016020830185838301111561131157600080fd5b61131c83828461199b565b50505092915050565b60006113318235611984565b905092915050565b60006113458251611984565b905092915050565b6000611359825161198e565b905092915050565b60006020828403121561137357600080fd5b600061138184828501611222565b91505092915050565b6000806040838503121561139d57600080fd5b60006113ab85828601611222565b925050602083013567ffffffffffffffff8111156113c857600080fd5b6113d485828601611236565b9150509250929050565b6000602082840312156113f057600080fd5b600082013567ffffffffffffffff81111561140a57600080fd5b61141684828501611236565b91505092915050565b60006020828403121561143157600080fd5b600061143f848285016112bb565b91505092915050565b60006020828403121561145a57600080fd5b600082015167ffffffffffffffff81111561147457600080fd5b611480848285016112cf565b91505092915050565b60006020828403121561149b57600080fd5b60006114a984828501611325565b91505092915050565b6000602082840312156114c457600080fd5b60006114d284828501611339565b91505092915050565b6000602082840312156114ed57600080fd5b60006114fb8482850161134d565b91505092915050565b61150d81611920565b82525050565b600061151e826118cd565b808452602084019350611530836118a6565b60005b8281101561156257611546868351611504565b61154f826118f9565b9150602086019550600181019050611533565b50849250505092915050565b6000611579826118d8565b80845260208401935083602082028501611592856118b3565b60005b848110156115cb5783830388526115ad838351611646565b92506115b882611906565b9150602088019750600181019050611595565b508196508694505050505092915050565b60006115e7826118e3565b8084526020840193506115f9836118c0565b60005b8281101561162b5761160f868351611710565b61161882611913565b91506020860195506001810190506115fc565b50849250505092915050565b61164081611932565b82525050565b6000611651826118ee565b80845261166581602086016020860161199b565b61166e816119ce565b602085010191505092915050565b6000602682527f4f776e61626c653a206e6577206f776e657220697320746865207a65726f206160208301527f64647265737300000000000000000000000000000000000000000000000000006040830152606082019050919050565b6000601582527f746f6b656e20616c72656164792072656d6f76656400000000000000000000006020830152604082019050919050565b6117198161195e565b82525050565b60006020820190506117346000830184611504565b92915050565b600060208201905081810360008301526117548184611513565b905092915050565b60006060820190508181036000830152611776818661156e565b9050818103602083015261178a818561156e565b9050818103604083015261179e81846115dc565b9050949350505050565b600060208201905081810360008301526117c281846115dc565b905092915050565b60006020820190506117df6000830184611637565b92915050565b600060208201905081810360008301526117fe8161167c565b9050919050565b6000602082019050818103600083015261181e816116d9565b9050919050565b6000604051905081810181811067ffffffffffffffff8211171561184857600080fd5b8060405250919050565b600067ffffffffffffffff82111561186957600080fd5b602082029050602081019050919050565b600067ffffffffffffffff82111561189157600080fd5b601f19601f8301169050602081019050919050565b6000602082019050919050565b6000602082019050919050565b6000602082019050919050565b600081519050919050565b600081519050919050565b600081519050919050565b600081519050919050565b6000602082019050919050565b6000602082019050919050565b6000602082019050919050565b600061192b8261193e565b9050919050565b60008115159050919050565b600073ffffffffffffffffffffffffffffffffffffffff82169050919050565b6000819050919050565b60006119738261193e565b9050919050565b6000819050919050565b6000819050919050565b600060ff82169050919050565b60005b838110156119b957808201518184015260208101905061199e565b838111156119c8576000848401525b50505050565b6000601f19601f830116905091905056fea265627a7a7230582060091ad19fd9d3dc53a1141692451a75bf4f0de4f8c59437a506ce1ed9f607a16c6578706572696d656e74616cf50037",
  "source": "pragma solidity >=0.5.0;\npragma experimental ABIEncoderV2;\n\ncontract Ownable {\n  address private _owner;\n\n  event OwnershipTransferred(\n    address indexed previousOwner,\n    address indexed newOwner\n  );\n\n  /**\n   * @dev The Ownable constructor sets the original `owner` of the contract to the sender\n   * account.\n   */\n  constructor() internal {\n    _owner = msg.sender;\n    emit OwnershipTransferred(address(0), _owner);\n  }\n\n  /**\n   * @return the address of the owner.\n   */\n  function owner() public view returns(address) {\n    return _owner;\n  }\n\n  /**\n   * @dev Throws if called by any account other than the owner.\n   */\n  modifier onlyOwner() {\n    require(isOwner());\n    _;\n  }\n\n  /**\n   * @return true if `msg.sender` is the owner of the contract.\n   */\n  function isOwner() public view returns(bool) {\n    return msg.sender == _owner;\n  }\n  \n  /**\n   * @dev Transfers ownership of the contract to a new account (`newOwner`).\n   * Can only be called by the current owner.\n   */\n  function transferOwnership(address newOwner) public onlyOwner {\n      _transferOwnership(newOwner);\n  }\n\n  /**\n   * @dev Transfers ownership of the contract to a new account (`newOwner`).\n   */\n  function _transferOwnership(address newOwner) internal {\n      require(newOwner != address(0), \"Ownable: new owner is the zero address\");\n      emit OwnershipTransferred(_owner, newOwner);\n      _owner = newOwner;\n  }\n\n}\n\ncontract ERC20Interface {\n  function name() public view returns (string memory);\n  function symbol() public view returns (string memory);\n  function decimals() public view returns (uint8);\n  function balanceOf(address _owner) public view returns (uint256 balance);\n}\n\ncontract ERC20BadInterface {\n  function name() public view returns (bytes32);\n  function symbol() public view returns (bytes32);\n  function decimals() public view returns (uint8);\n  function balanceOf(address _owner) public view returns (uint256 balance);\n}\n\ncontract RegistryLookup is Ownable{\n\n    mapping (address => bool) public authorisedStatus;\n    event AddNewToken(address newToken);\n    event RemoveToken(address token);\n\n    address[] public authorisedTokens;\n\n    function addNewTokens(address[] memory _tokens) public onlyOwner {\n        for (uint32 i = 0; i < _tokens.length; i++) {\n            authorisedStatus[_tokens[i]] = true;\n            authorisedTokens.push(_tokens[i]);\n            emit AddNewToken(_tokens[i]);\n        }\n    }\n\n    function removeTokens(address[] memory _tokens) public onlyOwner {\n        for (uint32 i = 0; i < _tokens.length; i++) {\n            require(authorisedStatus[_tokens[i]] == true, \"token already removed\");\n            authorisedStatus[_tokens[i]] = false;\n            emit RemoveToken(_tokens[i]);\n        }\n    }\n\n    function getAvailableTokens() public view returns(address[] memory tokens) {\n        tokens = new address[](authorisedTokens.length);\n\n        for (uint32 i = 0; i < authorisedTokens.length; i++) {\n            if (authorisedStatus[authorisedTokens[i]]) {\n                tokens[i] = authorisedTokens[i];\n            } else {\n                tokens[i] = address(0);\n            }\n        }\n    }\n\n    function bytes32ToString(bytes32 x) private pure returns (string memory) {\n      bytes memory bytesString = new bytes(32);\n      uint charCount = 0;\n      for (uint j = 0; j < 32; j++) {\n        byte char = byte(bytes32(uint(x) * 2 ** (8 * j)));\n        if (char != 0) {\n          bytesString[charCount] = char;\n          charCount++;\n        }\n      }\n      bytes memory bytesStringTrimmed = new bytes(charCount);\n      for (uint32 j = 0; j < charCount; j++) {\n        bytesStringTrimmed[j] = bytesString[j];\n      }\n      return string(bytesStringTrimmed);\n    }\n\n    function getTokenName(address tokenAddress) private view returns (string memory){\n      // check if bytes32 call returns correctly\n      string memory name = bytes32ToString(ERC20BadInterface(tokenAddress).name());\n      bytes memory nameBytes = bytes(name);\n      if(nameBytes.length <= 1){\n        name = ERC20Interface(tokenAddress).name();\n      }\n      return name;\n    }\n\n    function getTokenSymbol(address tokenAddress) private view returns (string memory){\n      // check if bytes32 call returns correctly\n      string memory symbol = bytes32ToString(ERC20BadInterface(tokenAddress).symbol());\n      bytes memory symbolBytes = bytes(symbol);\n      if(symbolBytes.length <= 1){\n        symbol = ERC20Interface(tokenAddress).symbol();\n      }\n      return symbol;\n    }\n\n    // get name, symbol and decimals for multiple tokens\n    function getTokenData(address[] memory _tokens) public view returns (\n      string[] memory names, string[] memory symbols, uint[] memory decimals\n      ) {\n      names = new string[](_tokens.length);\n      symbols = new string[](_tokens.length);\n      decimals = new uint[](_tokens.length);\n      for (uint32 i = 0; i < _tokens.length; i++) {\n        names[i] = getTokenName(_tokens[i]);\n        symbols[i] = getTokenSymbol(_tokens[i]);\n        decimals[i] = ERC20Interface(_tokens[i]).decimals();\n      }\n    }\n\n    // get external balance of multiple tokens\n    function getExternalBalances(address trader, address[] memory assetAddresses) public view returns (uint256[] memory) {\n        uint256[] memory balances = new uint256[](assetAddresses.length);\n        for (uint i = 0; i < assetAddresses.length; i++) {\n            balances[i] = ERC20Interface(assetAddresses[i]).balanceOf(trader);\n        }\n        return balances;\n    }\n\n}\n",
  "sourcePath": "/Users/benkaufman/Documents/Work/DAOstack/ethtex-registry/contracts/RegistryLookup.sol",
  "compiler": {
    "name": "solc",
    "version": "0.5.0+commit.1d4f565a.Emscripten.clang"
  },
  "schemaVersion": "3.0.0",
  "updatedAt": "2019-11-12T09:16:56.987Z",
  "devdoc": {
    "methods": {
      "isOwner()": {
        "return": "true if `msg.sender` is the owner of the contract."
      },
      "owner()": {
        "return": "the address of the owner."
      },
      "transferOwnership(address)": {
        "details": "Transfers ownership of the contract to a new account (`newOwner`). Can only be called by the current owner."
      }
    }
  },
  "userdoc": {
    "methods": {}
  }
}